:100000000C942A000C94870D0C9447000C94470024
:100010000C9435080C9408080C94DB0A0C94810AA3
:100020000C94AE0A0C94540A0C94850C0C94580C45
:100030000C9447000C9447000C9447000C94470024
:100040000C94E8100C9447000C9447000C94470063
:100050000C94470011241FBECFE5D8E0DEBFCDBF12
:1000600011E0A0E6B0E0E8EAF5E502C005900D92E7
:10007000AC34B107D9F711E0ACE4B1E001C01D9296
:10008000A836B107E1F70E94A8290C94D22A0C9453
:100090000000EF92FF920F931F937B018C0120E0F1
:1000A00030E040E05FE40E94490388238CF0C801FF
:1000B000B70120E030E040E05FE40E94C1010E940F
:1000C000A9039B01AC01205030404040504806C07D
:1000D000C801B7010E94A9039B01AC01B901CA0183
:1000E0001F910F91FF90EF900895A0E0B0E0EBE733
:1000F000F0E00C949B2ADC012B01FA019C919230D8
:1001000008F439C1EB018881823008F433C194309E
:1001100069F4843009F02FC111969C91119789815F
:10012000981709F428C1AEEDB0E025C1843009F478
:1001300021C18230A9F4923009F01DC19A01AD01AC
:1001400088E0EA010990AE01E90109929E0181501F
:10015000C1F7E201898111969C918923818308C1AD
:10016000923009F407C112962D903C901397EB0141
:100170008A819B811496AD90BD90CD90DC901797AD
:10018000EC80FD800E811F819101281B390BB90184
:1001900037FF04C066277727621B730B6032710537
:1001A0000CF061C0121613066CF537014801062EDB
:1001B00004C096948794779467940A94D2F721E0C8
:1001C00030E040E050E004C0220F331F441F551FB1
:1001D0006A95D2F721503040404050402E213F21B7
:1001E00040235123211531054105510521F021E01E
:1001F00030E040E050E079018A01E628F72808293C
:1002000019293CC0232BD1F1260E371E350146019A
:10021000062E04C096948794779467940A94D2F734
:1002200021E030E040E050E004C0220F331F441FC3
:10023000551F6A95D2F721503040404050402A2146
:100240003B214C215D21211531054105510521F04E
:1002500021E030E040E050E059016A01A628B728CB
:10026000C828D9280BC0821593052CF01C01AA249C
:10027000BB24650103C0EE24FF24870111969C91E5
:10028000D20111968C91981709F445C0992339F041
:10029000A80197012A193B094C095D0906C0A6016E
:1002A00095012E193F09400B510B57FD08C01182D3
:1002B0003382228224833583468357831DC081E0A5
:1002C00081833382228288279927DC01821B930B4A
:1002D000A40BB50B84839583A683B7830DC0220F2F
:1002E000331F441F551F24833583468357838281E0
:1002F000938101979383828324813581468157813D
:10030000DA01C9010197A109B1098F5F9F4FAF4F72
:10031000BF4328F30BC0918333822282EA0CFB1C7B
:100320000C1D1D1DE482F5820683178383E0808304
:10033000248135814681578157FF1AC0C901AA27F8
:1003400097FDA095BA2F81709070A070B0705695EF
:10035000479537952795822B932BA42BB52B848318
:100360009583A683B7838281938101969383828349
:10037000DF0101C0D201CD01CDB7DEB7E2E10C94BF
:10038000B72AA0E2B0E0E7ECF1E00C94A72A698379
:100390007A838B839C832D833E834F835887E9E048
:1003A000EE2EF12CEC0EFD1ECE010196B7010E943F
:1003B000D2048E010F5E1F4FCE010596B8010E9438
:1003C000D2048A8991E089278A8BC701B801AE01DE
:1003D000475E5F4F0E9475000E94FD03A096E6E015
:1003E0000C94C32AA0E2B0E0E8EFF1E00C94A72A55
:1003F00069837A838B839C832D833E834F835887C5
:10040000F9E0EF2EF12CEC0EFD1ECE010196B701A6
:100410000E94D2048E010F5E1F4FCE010596B801D7
:100420000E94D204C701B801AE01475E5F4F0E942F
:1004300075000E94FD03A096E6E00C94C32AA0E29A
:10044000B0E0E5E2F2E00C949B2A69837A838B8327
:100450009C832D833E834F835887CE010196BE0136
:10046000675F7F4F0E94D204CE010596BE016F5E8A
:100470007F4F0E94D2049985923088F0898982301A
:10048000C8F0943019F4823051F404C0843029F457
:10049000923081F48EED90E0C6C0923049F420E0B5
:1004A0009A858A89981321E02A87CE010996BBC0D4
:1004B000823049F420E09A858A89981321E02A8BBA
:1004C000CE014196B0C02D843E844F8458886D88FB
:1004D0007E888F88988CEE24FF248701AA24BB2471
:1004E000650140E050E060E070E0E0E0F0E0C10174
:1004F00081709070892BE9F0E60CF71C081D191D1E
:100500009A01AB012A0D3B1D4C1D5D1D80E090E062
:10051000A0E0B0E0E614F7040805190520F481E036
:1005200090E0A0E0B0E0BA01A901480F591F6A1F8E
:100530007B1FAA0CBB1CCC1CDD1C97FE08C081E0F5
:1005400090E0A0E0B0E0A82AB92ACA2ADB2A3196B6
:10055000E032F10549F0660C771C881C991C569412
:10056000479437942794C3CFFA85EA892B893C892D
:100570008B859C85280F391F2E5F3F4F17C0CA01FE
:1005800081709070892B61F016950795F794E79428
:1005900080E090E0A0E0B0E8E82AF92A0A2B1B2BC3
:1005A00076956795579547952F5F3F4F77FDE7CF36
:1005B0000CC0440F551F661F771F17FD4160EE0CDE
:1005C000FF1C001F111F21503040403090E05907A0
:1005D00090E0690790E4790760F32B8F3C8FDB0193
:1005E000CA018F779070A070B07080349105A1051A
:1005F000B10561F447FD0AC0E114F10401051105DC
:1006000029F0405C5F4F6F4F7F4F40781A8EFE1786
:1006100011F081E08A8F4D8F5E8F6F8F78A383E01A
:10062000898FCE0149960E94FD03A096E2E10C94C9
:10063000B72AA8E1B0E0EFE1F3E00C94A72A6983C0
:100640007A838B839C832D833E834F83588789E0F5
:10065000E82EF12CEC0EFD1ECE010196B7010E9492
:10066000D2048E010F5E1F4FCE010596B8010E9485
:10067000D2048985823040F08989823028F0C70110
:10068000B8010E944A0501C08FEF6896E6E00C941D
:10069000C32AA8E1B0E0EFE4F3E00C94A72A698351
:1006A0007A838B839C832D833E834F83588789E095
:1006B000E82EF12CEC0EFD1ECE010196B7010E9432
:1006C000D2048E010F5E1F4FCE010596B8010E9425
:1006D000D2048985823040F08989823028F0C701B0
:1006E000B8010E944A0501C08FEF6896E6E00C94BD
:1006F000C32AA8E1B0E0EFE7F3E00C94A72A6983EE
:100700007A838B839C832D833E834F83588789E034
:10071000E82EF12CEC0EFD1ECE010196B7010E94D1
:10072000D2048E010F5E1F4FCE010596B8010E94C4
:10073000D2048985823040F08989823028F0C7014F
:10074000B8010E944A0501C081E06896E6E00C9479
:10075000C32AACE0B0E0EFEAF3E00C94AB2A698383
:100760007A838B839C83CE010196BE016B5F7F4FA2
:100770000E94D2048D81823061F1823050F1843048
:1007800021F48E81882351F12EC02F81388537FDC9
:1007900020C06E812F3131051CF06623F9F023C093
:1007A0008EE190E0821B930B29853A854B855C8511
:1007B00004C056954795379527958A95D2F76623B5
:1007C000B1F050954095309521953F4F4F4F5F4F79
:1007D0000EC020E030E040E050E009C02FEF3FEFD6
:1007E0004FEF5FE704C020E030E040E050E8B9019F
:1007F000CA012C96E2E00C94C72ADF92EF92FF9296
:100800000F931F93FC01E480F58006811781D1804E
:100810008081823048F480E090E0A0E1B0E0E82AF6
:10082000F92A0A2B1B2BA5C0843009F49FC0823003
:1008300021F4EE24FF24870105C0E114F104010531
:10084000110519F4E0E0F0E096C0628173819FEF3A
:10085000623879070CF05BC022E83FEF261B370BAC
:100860002A3131052CF020E030E040E050E02AC091
:10087000B801A701022E04C0769567955795479554
:100880000A94D2F781E090E0A0E0B0E004C0880FC5
:10089000991FAA1FBB1F2A95D2F70197A109B10979
:1008A0008E219F21A023B1230097A105B10521F03E
:1008B00081E090E0A0E0B0E09A01AB01282B392B59
:1008C0004A2B5B2BDA01C9018F779070A070B07052
:1008D00080349105A105B10539F427FF09C0205CDA
:1008E0003F4F4F4F5F4F04C0215C3F4F4F4F5F4F13
:1008F000E0E0F0E02030A0E03A07A0E04A07A0E402
:100900005A0710F0E1E0F0E079018A0127C0603871
:10091000710564F5FB01E158FF4FD801C7018F77DE
:100920009070A070B07080349105A105B10539F4C4
:10093000E7FE0DC080E490E0A0E0B0E004C08FE3EB
:1009400090E0A0E0B0E0E80EF91E0A1F1B1F17FFA1
:1009500005C016950795F794E794319687E01695AC
:100960000795F794E7948A95D1F705C0EE24FF2404
:100970008701EFEFF0E06E2F679566276795902F60
:100980009F77D794DD24D7948E2F8695492F462BB9
:10099000582F5D29B701CA011F910F91FF90EF9069
:1009A000DF900895FC01DB01408151812281622F9B
:1009B0006F7770E0221F2227221F9381892F880FD3
:1009C000822B282F30E0991F9927991F11969C930D
:1009D000119721153105A9F54115510561057105DD
:1009E00011F482E037C082E89FEF13969C938E93B8
:1009F00012979A01AB0167E0220F331F441F551F66
:100A00006A95D1F783E08C930DC0220F331F441FEA
:100A1000551F12968D919C911397019713969C9355
:100A20008E931297203080E0380780E0480780E4FA
:100A3000580758F314962D933D934D935C93179755
:100A400008952F3F310579F4411551056105710570
:100A500019F484E08C93089564FF03C081E08C93C3
:100A600012C01C9210C02F57304013963C932E9307
:100A7000129783E08C9387E0440F551F661F771F02
:100A80008A95D1F7706414964D935D936D937C9322
:100A9000179708951F93DC01FB019C91923008F495
:100AA00047C08081823008F443C0943051F41196DD
:100AB0001C91843099F58181682F70E0611B710968
:100AC0003FC0843021F0923031F48230B9F181811D
:100AD000882389F12DC011961C9111978230F1F075
:100AE00081811817D9F412962D913C911397828128
:100AF00093818217930794F028173907BCF0149656
:100B00008D919D910D90BC91A02D248135814681C0
:100B10005781281739074A075B0718F4112341F05A
:100B20000AC082179307A407B50740F4112319F0F0
:100B300061E070E005C06FEF7FEF02C060E070E041
:100B4000CB011F910895DF93CF93CDB7DEB7A1E41A
:100B5000B0E0E1E4F0E0808188608C93CF91DF9198
:100B60000895DF93CF93CDB7DEB7A1E4B0E0E1E421
:100B7000F0E0808188618C93E1E4F0E01082CF9115
:100B8000DF910895DF93CF930F92CDB7DEB78983BE
:100B9000A1E4B0E0E1E4F0E08081887F8C93A1E4FF
:100BA000B0E0E1E4F0E090818981892B8C930F9093
:100BB000CF91DF910895DF93CF9300D00F92CDB7FF
:100BC000DEB788E18A8380E48983898182608983B2
:100BD0008981846089838A8184608A838981806431
:100BE00089838981877F898389818F7E89838981B0
:100BF0008062898389818E7F8983E0E4F0E01082BE
:100C0000E9E2F0E083E38083EAE2F0E08A81808336
:100C1000E0E4F0E0898180830F900F900F90CF91F6
:100C2000DF910895DF93CF9300D0CDB7DEB79A83DD
:100C30008983EAE2F0E08081829586958770882F2B
:100C400090E0817090700097A1F389819A81807003
:100C50009170009741F4AAE2B0E0EAE2F0E080810E
:100C60008E7F8C9307C0AAE2B0E0EAE2F0E08081D8
:100C700081608C93ECE2F0E0898180830F900F908B
:100C8000CF91DF910895DF93CF9300D000D00F92E2
:100C9000CDB7DEB79D838C831B821A82EBE2F0E036
:100CA00080818823DCF7EBE2F0E080818C718A831D
:100CB0008A81882319F081E08B8316C0EAE2F0E094
:100CC00080818695817089838981882F90E0382F73
:100CD0002227ECE2F0E08081882F90E0822B932B9A
:100CE000EC81FD81918380838B810F900F900F9019
:100CF0000F900F90CF91DF910895DF93CF93CDB7F1
:100D0000DEB7AAE2B0E0EAE2F0E0808180688C938E
:100D1000CF91DF910895DF93CF93CDB7DEB7AAE2ED
:100D2000B0E0EAE2F0E080818F778C93CF91DF91A1
:100D30000895DF93CF93CDB7DEB7AAE2B0E0EAE241
:100D4000F0E0808180648C93CF91DF910895DF93F0
:100D5000CF93CDB7DEB7AAE2B0E0EAE2F0E080815F
:100D60008F7B8C93CF91DF910895DF93CF93CDB795
:100D7000DEB7AAE2B0E0EAE2F0E0808180628C9324
:100D8000CF91DF910895DF93CF93CDB7DEB7AAE27D
:100D9000B0E0EAE2F0E080818F7D8C93CF91DF912B
:100DA0000895DF93CF93CDB7DEB7A5E4B0E0E5E4D7
:100DB000F0E080818F7B8C93A5E4B0E0E5E4F0E087
:100DC0008081877F8C93A5E4B0E0E5E4F0E080814A
:100DD00080618C93A5E4B0E0E5E4F0E080818F7D54
:100DE0008C93CF91DF910895DF93CF930F92CDB77E
:100DF000DEB78983A5E4B0E0E5E4F0E08081887F98
:100E00008C93A5E4B0E0E5E4F0E08081982F89813F
:100E10008770892B8C930F90CF91DF910895DF938A
:100E2000CF93CDB7DEB7A5E4B0E0E5E4F0E0808194
:100E3000887F8C93CF91DF910895DF93CF93CDB7C7
:100E4000DEB7A9E5B0E0E9E5F0E0808180648C934D
:100E5000CF91DF910895DF93CF93CDB7DEB7A9E5AA
:100E6000B0E0E9E5F0E080818F7B8C93CF91DF915A
:100E70000895DF93CF93CDB7DEB7A9E5B0E0E9E5FC
:100E8000F0E0808180688C93CF91DF910895DF93AB
:100E9000CF93CDB7DEB7A9E5B0E0E9E5F0E080811A
:100EA0008F778C93CF91DF910895DF93CF9300D00C
:100EB000CDB7DEB79A83898389819A819093570150
:100EC000809356010F900F90CF91DF910895DF939B
:100ED000CF9300D0CDB7DEB79A83898389819A8179
:100EE00090935501809354010F900F90CF91DF9113
:100EF0000895DF93CF930F92CDB7DEB78983E4E4F3
:100F0000F0E0898180830F90CF91DF910895DF9386
:100F1000CF930F92CDB7DEB78983E3E4F0E0898108
:100F200080830F90CF91DF910895DF93CF93CDB75A
:100F3000DEB7E4E4F0E08081CF91DF910895DF93A4
:100F4000CF93CDB7DEB7E3E4F0E08081CF91DF91BE
:100F50000895DF93CF93CDB7DEB7A2E4B0E0E2E42B
:100F6000F0E0808188608C93CF91DF910895DF93CA
:100F7000CF930F92CDB7DEB789838981813079F421
:100F8000A5E4B0E0E5E4F0E080818F7B8C93A5E4FC
:100F9000B0E0E5E4F0E08081877F8C9335C0898103
:100FA000823079F4A5E4B0E0E5E4F0E080818F7B65
:100FB0008C93A5E4B0E0E5E4F0E0808188608C9358
:100FC00023C08981833079F4A5E4B0E0E5E4F0E062
:100FD000808180648C93A5E4B0E0E5E4F0E080815A
:100FE00088608C9311C08981843071F4A5E4B0E0ED
:100FF000E5E4F0E0808180648C93A5E4B0E0E5E472
:10100000F0E08081877F8C930F90CF91DF910895DE
:101010001F920F920FB60F9211242F933F934F936D
:101020005F936F937F938F939F93AF93BF93EF9350
:10103000FF93DF93CF93CDB7DEB7E0915601F091E8
:1010400057010995CF91DF91FF91EF91BF91AF913A
:101050009F918F917F916F915F914F913F912F91D0
:101060000F900FBE0F901F9018951F920F920FB602
:101070000F9211242F933F934F935F936F937F931E
:101080008F939F93AF93BF93EF93FF93DF93CF9390
:10109000CDB7DEB7E0915401F09155010995CF919C
:1010A000DF91FF91EF91BF91AF919F918F917F91D0
:1010B0006F915F914F913F912F910F900FBE0F90C5
:1010C0001F901895DF93CF93CDB7DEB7AFE4B0E0B4
:1010D000EFE4F0E080818E7F8C93AFE4B0E0EFE44A
:1010E000F0E080818D7F8C93AEE4B0E0EEE4F0E040
:1010F0008081877F8C93AEE4B0E0EEE4F0E0808105
:101100008F7E8C93AFE4B0E0EFE4F0E080818F7BE2
:101110008C93AFE4B0E0EFE4F0E0808180688C93E2
:10112000AFE4B0E0EFE4F0E080818F7E8C93AFE439
:10113000B0E0EFE4F0E0808180628C93AEE4B0E058
:10114000EEE4F0E08081887F8C93A9E5B0E0E9E5EA
:10115000F0E080818B7F8C93A9E5B0E0E9E5F0E0D9
:101160008081877F8C93A9E5B0E0E9E5F0E080819C
:101170008F7E8C93A9E5B0E0E9E5F0E080818F7D7A
:101180008C93A8E5B0E0E8E5F0E0808184608C9382
:10119000A8E5B0E0E8E5F0E0808188608C93A8E500
:1011A000B0E0E8E5F0E0808180618C93A8E5B0E0F4
:1011B000E8E5F0E0808180628C93EAE4F0E0108260
:1011C000EBE4F0E01082E8E4F0E01082E9E4F0E023
:1011D0001082ECE4F0E01082EDE4F0E01082E6E44E
:1011E000F0E01082E7E4F0E01082CF91DF91089503
:1011F000DF93CF930F92CDB7DEB78983AEE4B0E033
:10120000EEE4F0E08081887F8C93AEE4B0E0EEE421
:10121000F0E08081982F89818770892B8C930F90C3
:10122000CF91DF910895DF93CF93CDB7DEB7AEE4D2
:10123000B0E0EEE4F0E08081887F8C93CF91DF9185
:101240000895DF93CF93CDB7DEB7A9E5B0E0E9E528
:10125000F0E0808184608C93CF91DF910895DF93DB
:10126000CF93CDB7DEB7A9E5B0E0E9E5F0E0808146
:101270008B7F8C93CF91DF910895DF93CF93CDB780
:10128000DEB7A9E5B0E0E9E5F0E0808180618C930C
:10129000CF91DF910895DF93CF93CDB7DEB7A9E566
:1012A000B0E0E9E5F0E080818F7E8C93CF91DF9113
:1012B0000895DF93CF93CDB7DEB7A9E5B0E0E9E5B8
:1012C000F0E0808188608C93CF91DF910895DF9367
:1012D000CF93CDB7DEB7A9E5B0E0E9E5F0E08081D6
:1012E000877F8C93CF91DF910895DF93CF93CDB714
:1012F000DEB7A9E5B0E0E9E5F0E0808180628C939B
:10130000CF91DF910895DF93CF93CDB7DEB7A9E5F5
:10131000B0E0E9E5F0E080818F7D8C93CF91DF91A3
:101320000895DF93CF9300D0CDB7DEB79A8389833A
:1013300089819A8190935D0180935C010F900F9059
:10134000CF91DF910895DF93CF9300D0CDB7DEB773
:101350009A83898389819A8190935F0180935E014A
:101360000F900F90CF91DF910895DF93CF9300D02E
:10137000CDB7DEB79A83898389819A819093590189
:10138000809358010F900F90CF91DF910895DF93D4
:10139000CF9300D0CDB7DEB79A83898389819A81B4
:1013A00090935B0180935A010F900F90CF91DF9142
:1013B0000895DF93CF9300D0CDB7DEB79A838983AA
:1013C000ECE4F0E089818083EDE4F0E089819A81AA
:1013D000892F992780830F900F90CF91DF910895E7
:1013E000DF93CF9300D0CDB7DEB79A838983EAE449
:1013F000F0E089818083EBE4F0E089819A81892F94
:10140000992780830F900F90CF91DF910895DF93FC
:10141000CF9300D0CDB7DEB79A838983E8E4F0E0BC
:1014200089818083E9E4F0E089819A81892F992775
:1014300080830F900F90CF91DF910895DF93CF932A
:1014400000D0CDB7DEB79A838983E6E4F0E08981E6
:101450009A81918380830F900F90CF91DF910895AF
:10146000DF93CF9300D0CDB7DEB7EDE4F0E080811D
:10147000882F90E09A83898389819A81982F882781
:101480009A838983ECE4F0E08081282F30E0898121
:101490009A81822B932B9A83898389819A810F90D9
:1014A0000F90CF91DF9108951F920F920FB60F9278
:1014B00011242F933F934F935F936F937F938F9359
:1014C0009F93AF93BF93EF93FF93DF93CF93CDB7EA
:1014D000DEB7E0915C01F0915D010995CF91DF915C
:1014E000FF91EF91BF91AF919F918F917F916F91FC
:1014F0005F914F913F912F910F900FBE0F901F90D2
:1015000018951F920F920FB60F9211242F933F93AD
:101510004F935F936F937F938F939F93AF93BF93FB
:10152000EF93FF93DF93CF93CDB7DEB7E0915E01EA
:10153000F0915F010995CF91DF91FF91EF91BF91FC
:10154000AF919F918F917F916F915F914F913F915B
:101550002F910F900FBE0F901F9018951F920F9212
:101560000FB60F9211242F933F934F935F936F9376
:101570007F938F939F93AF93BF93EF93FF93DF93EB
:10158000CF93CDB7DEB7E0915801F091590109959D
:10159000CF91DF91FF91EF91BF91AF919F918F918B
:1015A0007F916F915F914F913F912F910F900FBE5F
:1015B0000F901F9018951F920F920FB60F92112443
:1015C0002F933F934F935F936F937F938F939F934B
:1015D000AF93BF93EF93FF93DF93CF93CDB7DEB776
:1015E000E0915A01F0915B010995CF91DF91FF9154
:1015F000EF91BF91AF919F918F917F916F915F918B
:101600004F913F912F910F900FBE0F901F90189503
:10161000DF93CF93CDB7DEB7E6E4F0E08081918130
:10162000CF91DF910895DF93CF93CDB7DEB7AEE4CE
:10163000B0E0EEE4F0E0808180648C93CF91DF91A4
:101640000895DF93CF93CDB7DEB7AEE4B0E0EEE41C
:10165000F0E080818F7B8C93CF91DF910895DF93B1
:10166000CF93CDB7DEB7A3E5B0E0E3E5F0E080814E
:101670008F7B8C93A3E5B0E0E3E5F0E08081877F8A
:101680008C93A3E5B0E0E3E5F0E080818F7E8C935E
:10169000A3E5B0E0E3E5F0E0808180628C93CF9138
:1016A000DF910895DF93CF930F92CDB7DEB7898393
:1016B000A3E5B0E0E3E5F0E08081887F8C93A3E5CB
:1016C000B0E0E3E5F0E08081982F89818770892B75
:1016D0008C930F90CF91DF910895DF93CF93CDB787
:1016E000DEB7A3E5B0E0E3E5F0E08081887F8C938E
:1016F000CF91DF910895DF93CF93CDB7DEB7A9E502
:10170000B0E0E9E5F0E0808181608C93CF91DF91DA
:101710000895DF93CF93CDB7DEB7A9E5B0E0E9E553
:10172000F0E080818E7F8C93CF91DF910895DF93DD
:10173000CF93CDB7DEB7A9E5B0E0E9E5F0E0808171
:1017400082608C93CF91DF910895DF93CF93CDB7D3
:10175000DEB7A9E5B0E0E9E5F0E080818D7F8C930C
:10176000CF91DF910895DF93CF9300D0CDB7DEB74F
:101770009A83898389819A81909361018093600122
:101780000F900F90CF91DF910895DF93CF9300D00A
:10179000CDB7DEB79A83898389819A81909363015B
:1017A000809362010F900F90CF91DF910895DF93A6
:1017B000CF930F92CDB7DEB78983E2E5F0E0898160
:1017C00080830F90CF91DF910895DF93CF930F9295
:1017D000CDB7DEB78983ECE5F0E0898180830F9097
:1017E000CF91DF910895DF93CF93CDB7DEB7E2E5D8
:1017F000F0E08081CF91DF910895DF93CF93CDB753
:10180000DEB7ECE5F0E08081CF91DF910895DF93C2
:10181000CF930F92CDB7DEB789838981813079F478
:10182000A3E5B0E0E3E5F0E080818F7B8C93A3E556
:10183000B0E0E3E5F0E08081877F8C9335C089815B
:10184000823079F4A3E5B0E0E3E5F0E080818F7BBE
:101850008C93A3E5B0E0E3E5F0E0808188608C93B1
:1018600023C08981833079F4A3E5B0E0E3E5F0E0BB
:10187000808180648C93A3E5B0E0E3E5F0E08081B3
:1018800088608C9311C08981843071F4A3E5B0E045
:10189000E3E5F0E0808180648C93A3E5B0E0E3E5CC
:1018A000F0E08081877F8C930F90CF91DF91089536
:1018B0001F920F920FB60F9211242F933F934F93C5
:1018C0005F936F937F938F939F93AF93BF93EF93A8
:1018D000FF93DF93CF93CDB7DEB7E0916001F09136
:1018E00061010995CF91DF91FF91EF91BF91AF9188
:1018F0009F918F917F916F915F914F913F912F9128
:101900000F900FBE0F901F9018951F920F920FB659
:101910000F9211242F933F934F935F936F937F9375
:101920008F939F93AF93BF93EF93FF93DF93CF93E7
:10193000CDB7DEB7E0916201F09163010995CF91D7
:10194000DF91FF91EF91BF91AF919F918F917F9127
:101950006F915F914F913F912F910F900FBE0F901C
:101960001F901895DF93CF93CDB7DEB7AFE5B0E00A
:10197000EFE5F0E0808180688C93CF91DF9108954E
:10198000DF93CF93CDB7DEB7AFE5B0E0EFE5F0E0A2
:1019900080818F778C93CF91DF910895DF93CF93E0
:1019A000CDB7DEB7ABE5B0E0EBE5F0E08081806479
:1019B0008C93CF91DF910895DF93CF93CDB7DEB7AE
:1019C000ABE5B0E0EBE5F0E080818F7B8C93CF91CD
:1019D000DF910895DF93CF93CDB7DEB7A5E5B0E0F3
:1019E000E5E5F0E080818E7F8C93A5E5B0E0E5E54C
:1019F000F0E0808182608C93CF91DF910895DF9336
:101A0000CF9300D00F92CDB7DEB789838981282F7D
:101A100030E03B832A838A819B818130910521F1CB
:101A20002A813B81223031052CF48A819B810097E9
:101A300061F047C02A813B812230310521F18A8142
:101A40009B818330910571F13CC0A5E5B0E0E5E5EF
:101A5000F0E080818E7F8C93A5E5B0E0E5E5F0E0D5
:101A600080818D7F8C933BC0A5E5B0E0E5E5F0E09B
:101A7000808181608C93A5E5B0E0E5E5F0E08081B0
:101A80008D7F8C932CC0A5E5B0E0E5E5F0E080818A
:101A90008E7F8C93A5E5B0E0E5E5F0E08081826083
:101AA0008C931DC0A5E5B0E0E5E5F0E080818160A4
:101AB0008C93A5E5B0E0E5E5F0E0808182608C9351
:101AC0000EC0A5E5B0E0E5E5F0E080818E7F8C9367
:101AD000A5E5B0E0E5E5F0E0808182608C930F90B1
:101AE0000F900F90CF91DF910895DF93CF9300D0A7
:101AF000CDB7DEB79A83898389819A8190936501F6
:101B0000809364010F900F90CF91DF9108951F9201
:101B10000F920FB60F9211242F933F934F935F9321
:101B20006F937F938F939F93AF93BF93EF93FF93A5
:101B3000DF93CF93CDB7DEB7E0916401F0916501FB
:101B40000995CF91DF91FF91EF91BF91AF919F9157
:101B50008F917F916F915F914F913F912F910F9056
:101B60000FBE0F901F901895DF93CF93CDB7DEB7C0
:101B7000EAE3F0E08FEF8083E7E3F0E08FEF80832C
:101B8000E4E3F0E08FE38083E1E3F0E080EF808343
:101B9000CF91DF910895DF93CF93CDB7DEB72B9729
:101BA0000FB6F894DEBF0FBECDBF8A836B83198258
:101BB0008A818830D0F58B81282F30E03B872A87B7
:101BC0008A859B850097C9F02A853B8521303105A0
:101BD00049F5ABE3B0E0EBE3F0E08081482F8A8188
:101BE000282F30E081E090E0022E02C0880F991F7C
:101BF0000A94E2F7842B8C93F2C0ABE3B0E0EBE302
:101C0000F0E08081482F8A81282F30E081E090E049
:101C1000022E02C0880F991F0A94E2F78095842350
:101C20008C93DDC082E08983DAC08A81883008F431
:101C300044C08A81803108F040C08B81282F30E079
:101C400039872887888599850097E1F02885398527
:101C50002130310579F5A8E3B0E0E8E3F0E08081D8
:101C6000482F8A81882F90E09C012770307081E096
:101C700090E0022E02C0880F991F0A94E2F7842B8D
:101C80008C93ADC0A8E3B0E0E8E3F0E08081482F9A
:101C90008A81882F90E09C012770307081E090E06D
:101CA000022E02C0880F991F0A94E2F780958423C0
:101CB0008C9395C082E0898392C08A81803108F438
:101CC00044C08A81883108F040C08B81282F30E0E1
:101CD0003F832E838E819F810097E1F02E813F818B
:101CE0002130310579F5A5E3B0E0E5E3F0E080814E
:101CF000482F8A81882F90E09C012770307081E006
:101D000090E0022E02C0880F991F0A94E2F7842BFC
:101D10008C9365C0A5E3B0E0E5E3F0E08081482F57
:101D20008A81882F90E09C012770307081E090E0DC
:101D3000022E02C0880F991F0A94E2F7809584232F
:101D40008C934DC082E089834AC08A81883108F42F
:101D500044C08A81803208F040C08B81282F30E057
:101D60003D832C838C819D810097E1F02C813D8106
:101D70002130310579F5A2E3B0E0E2E3F0E08081C3
:101D8000482F8A81882F90E09C012770307081E075
:101D900090E0022E02C0880F991F0A94E2F7842B6C
:101DA0008C931DC0A2E3B0E0E2E3F0E08081482F15
:101DB0008A81882F90E09C012770307081E090E04C
:101DC000022E02C0880F991F0A94E2F7809584239F
:101DD0008C9305C082E0898302C082E08983898177
:101DE0002B960FB6F894DEBF0FBECDBFCF91DF911B
:101DF0000895DF93CF9300D000D0CDB7DEB78A83AC
:101E00007C836B8319828B819C81009709F46EC05F
:101E10008A818830A0F4E9E3F0E08081282F30E067
:101E20008A81882F90E0A90102C0559547958A952F
:101E3000E2F7CA018170EB81FC81808359C08A81FD
:101E40008830C8F08A818031B0F4E6E3F0E0808128
:101E5000282F30E08A81882F90E087709070A90148
:101E600002C0559547958A95E2F7CA018170EB81CA
:101E7000FC8180833DC08A818031C8F08A818831AD
:101E8000B0F4E3E3F0E08081282F30E08A81882FEE
:101E900090E087709070A90102C0559547958A958A
:101EA000E2F7CA018170EB81FC81808321C08A81C5
:101EB0008831C8F08A818032B0F4E0E3F0E08081BC
:101EC000282F30E08A81882F90E087709070A901D8
:101ED00002C0559547958A95E2F7CA018170EB815A
:101EE000FC81808305C082E0898302C083E089830E
:101EF00089810F900F900F900F90CF91DF910895EF
:101F0000DF93CF93CDB7DEB727970FB6F894DEBF38
:101F10000FBECDBF9C838B837E836D834F831A82DC
:101F2000198219821DC08981282F30E08B819C8104
:101F3000FC01E20FF31F40818981282F30E08D8161
:101F40009E81FC01E20FF31F9081842F692F0E9474
:101F5000CB0D8A838A81882339F489818F5F8983B5
:101F600099818F819817F8F28A8127960FB6F89495
:101F7000DEBF0FBECDBFCF91DF910895DF93CF932A
:101F800000D0CDB7DEB789836A8389816A810E94D8
:101F9000CB0D0F900F90CF91DF910895DF93CF93EA
:101FA000CDB7DEB7A7E2B0E0E7E2F0E080818F7D59
:101FB0008C93A7E2B0E0E7E2F0E0808180648C934C
:101FC000A7E2B0E0E7E2F0E080818F778C93A6E2B1
:101FD000B0E0E6E2F0E08081887F8C93A6E2B0E09A
:101FE000E6E2F0E0808185608C93A6E2B0E0E6E274
:101FF000F0E080818F7D8C93CF91DF910895DF9306
:10200000CF93CDB7DEB7A6E2B0E0E6E2F0E08081A4
:1020100080688C93CF91DF910895DF93CF93CDB7F4
:10202000DEB7A6E2B0E0E6E2F0E080818F778C9345
:10203000CF91DF910895DF93CF93CDB7DEB7A6E2BE
:10204000B0E0E6E2F0E0808188608C93CF91DF9190
:102050000895DF93CF93CDB7DEB7A6E2B0E0E6E216
:10206000F0E08081877F8C93CF91DF910895DF939B
:10207000CF9300D0CDB7DEB79A83898389819A81C7
:1020800090934D0180934C010F900F90CF91DF9171
:102090000895DF93CF930F92CDB7DEB78983A7E280
:1020A000B0E0E7E2F0E08081807E8C93A7E2B0E0D0
:1020B000E7E2F0E090818981892B8C93A6E2B0E081
:1020C000E6E2F0E0808180648C930F90CF91DF9105
:1020D0000895DF93CF930F92CDB7DEB789838981BF
:1020E000893010F5A6E2B0E0E6E2F0E0808180629F
:1020F0008C93A0E5B0E0E0E5F0E080818F718C93F7
:10210000A0E5B0E0E0E5F0E08081282F8981882F0C
:1021100090E0880F991F82959295907F9827807FF5
:102120009827822B8C930AC08981893039F4A6E2E2
:10213000B0E0E6E2F0E080818F7D8C930F90CF914C
:10214000DF910895DF93CF9300D00F92CDB7DEB724
:102150008B831A8219828B810E944910E6E2F0E09B
:10216000808182958F70882F90E0817090700097A9
:10217000A9F3A6E2B0E0E6E2F0E0808180618C9312
:10218000E4E2F0E08081882F90E09A838983E5E2A1
:10219000F0E08081882F90E0982F88279C0189812A
:1021A0009A81822B932B9A83898389819A810F90BC
:1021B0000F900F90CF91DF910895DF93CF93CDB71C
:1021C000DEB78091660190916701CF91DF9108950C
:1021D0001F920F920FB60F9211242F933F934F939C
:1021E0005F936F937F938F939F93AF93BF93EF937F
:1021F000FF93DF93CF93CDB7DEB780914C019091E1
:102200004D01009729F0E0914C01F0914D010995A5
:10221000E4E2F0E08081882F90E090936701809362
:102220006601E5E2F0E08081882F90E0982F882712
:102230009C018091660190916701822B932B909372
:10224000670180936601CF91DF91FF91EF91BF917C
:10225000AF919F918F917F916F915F914F913F913E
:102260002F910F900FBE0F901F901895DF93CF9373
:10227000CDB7DEB762970FB6F894DEBF0FBECDBF05
:102280008C876D871982CE0102969F878E87E1E445
:10229000F1E0F98BE88BFAE0FA8BE889F9890080A4
:1022A000888999890196998B888BEE85FF850082B4
:1022B0008E859F8501969F878E879A8991509A8BEC
:1022C000EA89EE2351F78D858A3008F045C08C8568
:1022D000282F30E0C901880F991F880F991F880F98
:1022E000991F820F931FFC01E251FF4F80818431BF
:1022F00071F48D85282F30E0CE010296FC01E20FAB
:10230000F31F90818C85692F0E94B81127C08C859E
:10231000282F30E0C901880F991F880F991F880F57
:10232000991F820F931FFC01E251FF4F80818A3079
:1023300081F48D85282F30E0CE010296FC01E20F5A
:10234000F31F8081982F90958C85692F0E94B8117A
:1023500005C081E0898302C082E089838981629619
:102360000FB6F894DEBF0FBECDBFCF91DF910895B9
:10237000DF93CF93CDB7DEB72A970FB6F894DEBFC1
:102380000FBECDBF89876A8719821BC08981482FFC
:1023900050E08A85282F30E08981882F90E0B901AC
:1023A00002C0759567958A95E2F7CB01282F2170B9
:1023B000CE010296FC01E40FF51F208389818F5F17
:1023C00089838981873010F38985282F30E0C901FE
:1023D000880F991F880F991F880F991F820F931FCD
:1023E0008A519F4F9E012E5F3F4FB90147E00E94E7
:1023F000800F2A960FB6F894DEBF0FBECDBFCF91E7
:10240000DF910895DF93CF9300D0CDB7DEB78A83F5
:1024100019828A81863008F04FC08A81282F30E0E7
:10242000C901880F991F880F991F880F991F820F64
:10243000931FFC01E251FF4F80818431A1F48A8116
:10244000282F30E0C901880F991F880F991F880F26
:10245000991F820F931FFC01E351FF4F808160E0C1
:102460000E94CB0D2BC08A81282F30E0C901880F34
:10247000991F880F991F880F991F820F931FFC01C6
:10248000E251FF4F80818A30A1F48A81282F30E009
:10249000C901880F991F880F991F880F991F820FF4
:1024A000931FFC01E351FF4F808161E00E94CB0D3F
:1024B00005C081E0898302C082E0898389810F9011
:1024C0000F90CF91DF910895DF93CF9300D0CDB7D8
:1024D000DEB78A8319828A81863008F04FC08A81EC
:1024E000282F30E0C901880F991F880F991F880F86
:1024F000991F820F931FFC01E251FF4F80818431AD
:10250000A1F48A81282F30E0C901880F991F880F14
:10251000991F880F991F820F931FFC01E351FF4FF2
:10252000808161E00E94CB0D2BC08A81282F30E092
:10253000C901880F991F880F991F880F991F820F53
:10254000931FFC01E251FF4F80818A30A1F48A8100
:10255000282F30E0C901880F991F880F991F880F15
:10256000991F820F931FFC01E351FF4F808160E0B0
:102570000E94CB0D05C081E0898302C082E089837F
:1025800089810F900F90CF91DF9108950F931F9342
:10259000DF93CF93CDB7DEB7CE58D0400FB6F894C7
:1025A000DEBF0FBECDBFFE01E357FF4F1082FE011D
:1025B000E257FF4F10820C94FA1AFE01E257FF4FC8
:1025C0008081282F30E0C901880F991F820F931F47
:1025D000880F991F880F991FFC01E45EFE4F8081D0
:1025E0008170813009F075C4FE01E757FF4F80E02C
:1025F00090E0A0EFB1E480839183A283B3838E0146
:102600000B571F4FFE01E757FF4F60817181828199
:10261000938120E030E04AEF54E40E941F02DC0185
:10262000CB01F80180839183A283B383FE01EB5732
:10263000FF4F608171818281938120E030E040E82A
:102640005FE30E947903882344F4FE01ED57FF4FB6
:1026500081E090E09183808364C0FE01EB57FF4FDF
:10266000608171818281938120E03FEF4FE757E4E1
:102670000E94190318160CF043C0FE01E757FF4FE4
:10268000608171818281938120E030E040E251E4F9
:102690000E941F02DC01CB018E010D571F4FBC01B0
:1026A000CD010E944900DC01CB01F80191838083B8
:1026B0001FC0FE01EF57FF4F88EC90E091838083AD
:1026C000FE01EF57FF4F808191810197F1F7FE01E5
:1026D000EF57FF4F91838083DE01AD57BF4FFE015F
:1026E000ED57FF4F80819181019711969C938E93B6
:1026F000FE01ED57FF4F808191810097D1F627C0F1
:102700008E010D571F4FFE01EB57FF4F6081718106
:10271000828193810E944900DC01CB01F801918301
:102720008083DE01A158BF4FFE01ED57FF4F80812E
:1027300091818D939C93FE01E158FF4F808191819F
:102740000197F1F7FE01E158FF4F91838083FE016D
:10275000E257FF4F8081282F30E0C901880F991F71
:10276000820F931F880F991F880F991FFC01E45E49
:10277000FE4F8081869586958170882F90E0880F26
:10278000991F880F991F482F4063FE01E257FF4FA2
:102790008081282F30E0C901880F991F820F931F75
:1027A000880F991F880F991FFC01E45EFE4F8081FE
:1027B00086958170882F90E0880F991F880F991F48
:1027C000880F991F842BFE01E357FF4F8083FE0182
:1027D000E257FF4FDE01A357BF4F80816C910E94EB
:1027E0000E1BFE01E558FF4F80E090E0A0E8BFE33C
:1027F00080839183A283B3838E0109581F4FFE010A
:10280000E558FF4F608171818281938120E030E043
:102810004AEF54E40E941F02DC01CB01F8018083DF
:102820009183A283B383FE01E958FF4F60817181D8
:102830008281938120E030E040E85FE30E947903E9
:10284000882344F4FE01EB58FF4F81E090E0918330
:10285000808364C0FE01E958FF4F608171818281ED
:10286000938120E03FEF4FE757E40E9419031816C9
:102870000CF043C0FE01E558FF4F608171818281F9
:10288000938120E030E040E251E40E941F02DC012D
:10289000CB018E010B581F4FBC01CD010E94490096
:1028A000DC01CB01F801918380831FC0FE01ED584C
:1028B000FF4F88EC90E091838083FE01ED58FF4F3D
:1028C000808191810197F1F7FE01ED58FF4F9183CF
:1028D0008083DE01AB58BF4FFE01EB58FF4F808174
:1028E0009181019711969C938E93FE01EB58FF4FB7
:1028F000808191810097D1F627C08E010B581F4F20
:10290000FE01E958FF4F60817181828193810E94AD
:102910004900DC01CB01F80191838083DE01AF58CF
:10292000BF4FFE01EB58FF4F808191818D939C93A7
:10293000FE01EF58FF4F808191810197F1F7FE0171
:10294000EF58FF4F91838083FE01E257FF4F808154
:10295000282F30E0C901880F991F820F931F880F1D
:10296000991F880F991FFC01E45EFE4F80818295BC
:102970008695869583708170882F90E0880F991FC7
:10298000880F991F482F4860FE01E257FF4F808152
:10299000282F30E0C901880F991F820F931F880FDD
:1029A000991F880F991FFC01E45EFE4F8081869578
:1029B000869586958170882F90E0880F991F482B07
:1029C000FE01E257FF4F8081282F30E0C901880FB8
:1029D000991F820F931F880F991F880F991FFC0161
:1029E000E45EFE4F808182958F708170842BFE01A2
:1029F000E357FF4F8083FE01E257FF4FDE01A357ED
:102A0000BF4F80816C910E940E1BFE01E359FF4F66
:102A100080E090E0A0E8BFE380839183A283B3834A
:102A20008E0107591F4FFE01E359FF4F60817181ED
:102A30008281938120E030E04AEF54E40E941F023B
:102A4000DC01CB01F80180839183A283B383FE0173
:102A5000E759FF4F608171818281938120E030E0EE
:102A600040E85FE30E947903882344F4FE01E959BA
:102A7000FF4F81E090E09183808364C0FE01E759BD
:102A8000FF4F608171818281938120E03FEF4FE7AA
:102A900057E40E94190318160CF043C0FE01E359D5
:102AA000FF4F608171818281938120E030E040E2BC
:102AB00051E40E941F02DC01CB018E0109591F4F16
:102AC000BC01CD010E944900DC01CB01F8019183DA
:102AD00080831FC0FE01EB59FF4F88EC90E091838B
:102AE0008083FE01EB59FF4F808191810197F1F7BF
:102AF000FE01EB59FF4F91838083DE01A959BF4F3F
:102B0000FE01E959FF4F80819181019711969C93B5
:102B10008E93FE01E959FF4F808191810097D1F694
:102B200027C08E0109591F4FFE01E759FF4F6081F1
:102B30007181828193810E944900DC01CB01F801FF
:102B400091838083DE01AD59BF4FFE01E959FF4FEC
:102B5000808191818D939C93FE01ED59FF4F80817F
:102B600091810197F1F7FE01ED59FF4F9183808329
:102B7000FE01E257FF4F808161E00E940E1BFE01C3
:102B8000E15AFF4F80E090E0A0E4B0E480839183BD
:102B9000A283B3838E01055A1F4FFE01E15AFF4FF6
:102BA000608171818281938120E030E04AEF54E4BA
:102BB0000E941F02DC01CB01F80180839183A28374
:102BC000B383FE01E55AFF4F608171818281938159
:102BD00020E030E040E85FE30E947903882344F47A
:102BE000FE01E75AFF4F81E090E09183808364C04B
:102BF000FE01E55AFF4F608171818281938120E05F
:102C00003FEF4FE757E40E94190318160CF043C03A
:102C1000FE01E15AFF4F608171818281938120E042
:102C200030E040E251E40E941F02DC01CB018E0142
:102C3000075A1F4FBC01CD010E944900DC01CB01A6
:102C4000F801918380831FC0FE01E95AFF4F88EC91
:102C500090E091838083FE01E95AFF4F808191814A
:102C60000197F1F7FE01E95AFF4F91838083DE015E
:102C7000A75ABF4FFE01E75AFF4F8081918101970C
:102C800011969C938E93FE01E75AFF4F80819181AC
:102C90000097D1F627C08E01075A1F4FFE01E55A53
:102CA000FF4F60817181828193810E944900DC0124
:102CB000CB01F80191838083DE01AB5ABF4FFE0147
:102CC000E75AFF4F808191818D939C93FE01EB5ACF
:102CD000FF4F808191810197F1F7FE01EB5AFF4F81
:102CE00091838083FE01E257FF4F8081282F30E0DF
:102CF000C901880F991F820F931F880F991F880F92
:102D0000991FFC01E45EFE4F8081881F8827881F81
:102D1000882F90E0880F991F482F4460FE01E257EA
:102D2000FF4F8081282F30E0C901880F991F820F43
:102D3000931F880F991F880F991FFC01E45EFE4FB7
:102D400080818295869587708170842BFE01E35780
:102D5000FF4F8083FE01E257FF4FDE01A357BF4FB5
:102D600080816C910E940E1BFE01EF5AFF4F80E0A4
:102D700090E0A0E4B0E480839183A283B3838E01CA
:102D8000035B1F4FFE01EF5AFF4F6081718182810B
:102D9000938120E030E04AEF54E40E941F02DC01FE
:102DA000CB01F80180839183A283B383FE01E35BAF
:102DB000FF4F608171818281938120E030E040E8A3
:102DC0005FE30E947903882344F4FE01E55BFF4F33
:102DD00081E090E09183808364C0FE01E35BFF4F5C
:102DE000608171818281938120E03FEF4FE757E45A
:102DF0000E94190318160CF043C0FE01EF5AFF4F52
:102E0000608171818281938120E030E040E251E471
:102E10000E941F02DC01CB018E01055B1F4FBC012C
:102E2000CD010E944900DC01CB01F8019183808330
:102E30001FC0FE01E75BFF4F88EC90E09183808329
:102E4000FE01E75BFF4F808191810197F1F7FE0161
:102E5000E75BFF4F91838083DE01A55BBF4FFE01DF
:102E6000E55BFF4F80819181019711969C938E9332
:102E7000FE01E55BFF4F808191810097D1F6B1C3E0
:102E80008E01055B1F4FFE01E35BFF4F6081718187
:102E9000828193810E944900DC01CB01F80191837A
:102EA0008083DE01A95BBF4FFE01E55BFF4F8081A0
:102EB000918111969C938E93FE01E95BFF4F808177
:102EC00091810197F1F7FE01E95BFF4F91838083C8
:102ED00088C3FE01ED5BFF4F80E090E0A0EFB1E41E
:102EE00080839183A283B3838E01015C1F4FFE0117
:102EF000ED5BFF4F608171818281938120E030E042
:102F00004AEF54E40E941F02DC01CB01F8018083E8
:102F10009183A283B383FE01FF96608171818281D8
:102F2000938120E030E040E85FE30E94790388234A
:102F30002CF481E090E09EAF8DAF46C0FE01FF967D
:102F4000608171818281938120E03FEF4FE757E4F8
:102F50000E941903181664F5FE01ED5BFF4F6081B6
:102F600071818281938120E030E040E251E40E944F
:102F70001F02DC01CB01BC01CD010E944900DC0134
:102F8000CB019EAF8DAF0FC088EC90E09CAF8BAFB4
:102F90008BAD9CAD0197F1F79CAF8BAF8DAD9EAD26
:102FA00001979EAF8DAF8DAD9EAD009769F716C0AE
:102FB000FE01FF9660817181828193810E944900A8
:102FC000DC01CB019EAF8DAF8DAD9EAD9AAF89AFC9
:102FD00089AD9AAD0197F1F79AAF89AFFE01E2573B
:102FE000FF4F808160E20E940E1BFE01E257FF4FFF
:102FF000808160E20E940E1BFE01E257FF4F80813C
:10300000282F30E0C901880F991F820F931F880F66
:10301000991F880F991FFC01E45EFE4F8081869501
:103020008170882F90E09695982F8827979587959F
:10303000482FFE01E257FF4F8081282F30E0C90161
:10304000880F991F820F931F880F991F880F991F50
:10305000FC01E45EFE4F8081869586958170882F05
:1030600090E0002496958795079496958795079408
:10307000982F802D842BFE01E357FF4F8083FE01A4
:10308000E257FF4FDE01A357BF4F80816C910E9432
:103090000E1B80E090E0A0E8BFE38DAB9EABAFAB32
:1030A000B8AF6DA97EA98FA998AD20E030E04AEFB6
:1030B00054E40E941F02DC01CB0189AB9AABABAB9D
:1030C000BCAB69A97AA98BA99CA920E030E040E8B3
:1030D0005FE30E94790388232CF481E090E098ABB1
:1030E0008FA73FC069A97AA98BA99CA920E03FEFCF
:1030F0004FE757E40E94190318164CF56DA97EA9F5
:103100008FA998AD20E030E040E251E40E941F0218
:10311000DC01CB01BC01CD010E944900DC01CB01E7
:1031200098AB8FA70FC088EC90E09EA78DA78DA5C8
:103130009EA50197F1F79EA78DA78FA598A9019746
:1031400098AB8FA78FA598A9009769F714C069A9B4
:103150007AA98BA99CA90E944900DC01CB0198ABFC
:103160008FA78FA598A99CA78BA78BA59CA5019736
:10317000F1F79CA78BA7FE01E257FF4F808160E02B
:103180000E940E1BFE01E257FF4F8081282F30E086
:10319000C901880F991F820F931F880F991F880FED
:1031A000991FFC01E45EFE4F80818295869586958D
:1031B00083708170882F90E00024969587950794FE
:1031C000969587950794982F802D482F4068FE018B
:1031D000E257FF4F8081282F30E0C901880F991FE7
:1031E000820F931F880F991F880F991FFC01E45EBF
:1031F000FE4F80818695869586958170882F90E018
:10320000880F991F82959295907F9827807F9827A5
:10321000482BFE01E257FF4F8081282F30E0C90183
:10322000880F991F820F931F880F991F880F991F6E
:10323000FC01E45EFE4F808182958F708170882F43
:1032400090E082959295907F9827807F9827842B95
:10325000FE01E357FF4F8083FE01E257FF4FDE017F
:10326000A357BF4F80816C910E940E1B80E090E0BD
:10327000A0E8BFE38FA398A7A9A7BAA76FA178A5D5
:1032800089A59AA520E030E04AEF54E40E941F028D
:10329000DC01CB018BA39CA3ADA3BEA36BA17CA13E
:1032A0008DA19EA120E030E040E85FE30E94790319
:1032B00088232CF481E090E09AA389A33FC06BA1FE
:1032C0007CA18DA19EA120E03FEF4FE757E40E9433
:1032D000190318164CF56FA178A589A59AA520E0C9
:1032E00030E040E251E40E941F02DC01CB01BC014E
:1032F000CD010E944900DC01CB019AA389A30FC034
:1033000088EC90E098A38F8F8F8D98A10197F1F7AB
:1033100098A38F8F89A19AA101979AA389A389A1C4
:103320009AA1009769F714C06BA17CA18DA19EA101
:103330000E944900DC01CB019AA389A389A19AA12B
:103340009E8F8D8F8D8D9E8D0197F1F79E8F8D8F26
:10335000FE01E257FF4F808160E00E940E1BFE01DC
:10336000E257FF4F808160E10E940E1B80E090E0F9
:10337000A0E4B0E4898F9A8FAB8FBC8F698D7A8D72
:103380008B8D9C8D20E030E04AEF54E40E941F02B8
:10339000DC01CB018D8B9E8BAF8BB88F6D897E89C5
:1033A0008F89988D20E030E040E85FE30E94790348
:1033B00088232CF481E090E09C8B8B8B3FC06D893F
:1033C0007E898F89988D20E03FEF4FE757E40E9478
:1033D000190318164CF5698D7A8D8B8D9C8D20E024
:1033E00030E040E251E40E941F02DC01CB01BC014D
:1033F000CD010E944900DC01CB019C8B8B8B0FC05F
:1034000088EC90E09A8B898B89899A890197F1F7EA
:103410009A8B898B8B899C8901979C8B8B8B8B8951
:103420009C89009769F714C06D897E898F89988D72
:103430000E944900DC01CB019C8B8B8B8B899C8982
:10344000988B8F878F8598890197F1F7988B8F8755
:10345000FE01E257FF4F808160E00E940E1BFE01DB
:10346000E257FF4F8081282F30E0C901880F991F54
:10347000820F931F880F991F880F991FFC01E45E2C
:10348000FE4F8081881F8827881F882F90E0880F33
:10349000991F82959295907F9827807F9827482F33
:1034A0004064FE01E257FF4F8081282F30E0C901C0
:1034B000880F991F820F931F880F991F880F991FDC
:1034C000FC01E45EFE4F8081829586958770817055
:1034D000882F90E082959295907F9827807F9827FB
:1034E000842BFE01E357FF4F8083FE01E257FF4F1D
:1034F000DE01A357BF4F80816C910E940E1B80E0BC
:1035000090E0A0E4B0E48B879C87AD87BE876B8595
:103510007C858D859E8520E030E04AEF54E40E9452
:103520001F02DC01CB018F839887A987BA876F813F
:10353000788589859A8520E030E040E85FE30E9445
:10354000790388232CF481E090E09E838D833FC033
:103550006F81788589859A8520E03FEF4FE757E4B2
:103560000E94190318164CF56B857C858D859E8508
:1035700020E030E040E251E40E941F02DC01CB0178
:10358000BC01CD010E944900DC01CB019E838D83EB
:103590000FC088EC90E09C838B838B819C8101978A
:1035A000F1F79C838B838D819E8101979E838D8310
:1035B0008D819E81009769F714C06F817885898518
:1035C0009A850E944900DC01CB019E838D838D8109
:1035D0009E819A83898389819A810197F1F79A83E1
:1035E0008983DE01A257BF4FFE01E257FF4F808162
:1035F0008F5F8C93FE01E257FF4F8081882311F487
:103600000C94DD12C257DF4F0FB6F894DEBF0FBE29
:10361000CDBFCF91DF911F910F910895DF93CF938D
:1036200000D0CDB7DEB789836A838981282F30E047
:10363000C901880F991F820F931F880F991F880F48
:10364000991FFC01E35EFE4F808160E00E94CB0D7C
:1036500089816A810E94311B0F900F90CF91DF9179
:103660000895DF93CF93CDB7DEB76F970FB6F89479
:10367000DEBF0FBECDBF8E8F6F8F1D8E8E8D282F1C
:1036800030E0C901880F991F820F931F880F991F7F
:103690000196880F991FFC01E45EFE4F808160E077
:1036A0000E94CB0D8E8D282F30E0C901880F991F05
:1036B000820F931F880F991F880F991FFC01E15EED
:1036C000FE4F808161E00E94CB0D8E8D282F30E06F
:1036D000C901880F991F820F931F880F991F880FA8
:1036E000991FFC01E45EFE4F80818170813089F575
:1036F0001D8E2BC08E8D282F30E08D8D482F50E0F1
:10370000C901880F991F820F931F880F991F880F77
:10371000991F840F951FFC01E05EFE4F40818F8D45
:10372000282F30E08D8D882F90E0B90102C075956B
:1037300067958A95E2F7CB01982F9170842F692FB6
:103740000E94CB0D8D8D8F5F8D8F8D8D883090F287
:1037500031C084E08D8F2BC08E8D282F30E08D8D71
:10376000482F50E0C901880F991F820F931F880FBF
:10377000991F880F991F840F951FFC01E05EFE4F73
:1037800040818F8D282F30E08D8D882F90E0B901FA
:1037900002C0759567958A95E2F7CB01982F9170D5
:1037A000842F692F0E94CB0D8D8D8F5F8D8F8D8D16
:1037B000883090F280E090E0A0E2B1E4898F9A8FA7
:1037C000AB8FBC8F698D7A8D8B8D9C8D20E030E026
:1037D0004AEF54E40E941F02DC01CB018D8B9E8BCB
:1037E000AF8BB88F6D897E898F89988D20E030E00E
:1037F00040E85FE30E94790388232CF481E090E0A5
:103800009C8B8B8B3FC06D897E898F89988D20E042
:103810003FEF4FE757E40E94190318164CF5698DE6
:103820007A8D8B8D9C8D20E030E040E251E40E9447
:103830001F02DC01CB01BC01CD010E944900DC016B
:10384000CB019C8B8B8B0FC088EC90E09A8B898B83
:1038500089899A890197F1F79A8B898B8B899C8941
:1038600001979C8B8B8B8B899C89009769F714C07F
:103870006D897E898F89988D0E944900DC01CB017A
:103880009C8B8B8B8B899C89988B8F878F85988954
:103890000197F1F7988B8F878E8D282F30E0C90123
:1038A000880F991F820F931F880F991F880F991FE8
:1038B000FC01E15EFE4F808160E00E94CB0D80E064
:1038C00090E0A0E2B1E48B879C87AD87BE876B85D3
:1038D0007C858D859E8520E030E04AEF54E40E948F
:1038E0001F02DC01CB018F839887A987BA876F817C
:1038F000788589859A8520E030E040E85FE30E9482
:10390000790388232CF481E090E09E838D833FC06F
:103910006F81788589859A8520E03FEF4FE757E4EE
:103920000E94190318164CF56B857C858D859E8544
:1039300020E030E040E251E40E941F02DC01CB01B4
:10394000BC01CD010E944900DC01CB019E838D8327
:103950000FC088EC90E09C838B838B819C810197C6
:10396000F1F79C838B838D819E8101979E838D834C
:103970008D819E81009769F714C06F817885898554
:103980009A850E944900DC01CB019E838D838D8145
:103990009E819A83898389819A810197F1F79A831D
:1039A00089836F960FB6F894DEBF0FBECDBFCF915F
:1039B000DF910895DF93CF93CDB7DEB7AC970FB605
:1039C000F894DEBF0FBECDBF8BA76CA78BA5282FA9
:1039D00030E0C901880F991F820F931F880F991F2C
:1039E000880F991FFC01E35EFE4F808161E00E9419
:1039F000CB0D8BA5282F30E0C901880F991F820FAE
:103A0000931F880F991F880F991FFC01E45EFE4FDA
:103A100080818170813009F077C08BA56CA50E94F0
:103A2000311B80E090E0A0E8BFE38FA398A7A9A78F
:103A3000BAA76FA178A589A59AA520E030E04AEF42
:103A400054E40E941F02DC01CB018BA39CA3ADA315
:103A5000BEA36BA17CA18DA19EA120E030E040E837
:103A60005FE30E94790388232CF481E090E09AA31D
:103A700089A33FC06BA17CA18DA19EA120E03FEF57
:103A80004FE757E40E94190318164CF56FA178A56B
:103A900089A59AA520E030E040E251E40E941F028F
:103AA000DC01CB01BC01CD010E944900DC01CB014E
:103AB0009AA389A30FC088EC90E098A38F8F8F8D75
:103AC00098A10197F1F798A38F8F89A19AA10197E7
:103AD0009AA389A389A19AA1009769F705C16BA14F
:103AE0007CA18DA19EA10E944900DC01CB019AA37B
:103AF00089A389A19AA19E8F8D8F8D8D9E8D01970F
:103B0000F1F79E8F8D8FF0C08BA56CA50E94311BA5
:103B100080E090E0A0E8BFE3898F9A8FAB8FBC8FE5
:103B2000698D7A8D8B8D9C8D20E030E04AEF54E4D6
:103B30000E941F02DC01CB018D8B9E8BAF8BB88F57
:103B40006D897E898F89988D20E030E040E85FE3C1
:103B50000E94790388232CF481E090E09C8B8B8B6E
:103B60003FC06D897E898F89988D20E03FEF4FE7B8
:103B700057E40E94190318164CF5698D7A8D8B8DC8
:103B80009C8D20E030E040E251E40E941F02DC0105
:103B9000CB01BC01CD010E944900DC01CB019C8B13
:103BA0008B8B0FC088EC90E09A8B898B89899A89DE
:103BB0000197F1F79A8B898B8B899C8901979C8B54
:103BC0008B8B8B899C89009769F714C06D897E89DE
:103BD0008F89988D0E944900DC01CB019C8B8B8BD7
:103BE0008B899C89988B8F878F8598890197F1F7AE
:103BF000988B8F878CA5982F9295907F8BA5692F96
:103C00000E94311B80E090E0A0E8BFE38B879C8797
:103C1000AD87BE876B857C858D859E8520E030E0F5
:103C20004AEF54E40E941F02DC01CB018F83988786
:103C3000A987BA876F81788589859A8520E030E0E9
:103C400040E85FE30E94790388232CF481E090E050
:103C50009E838D833FC06F81788589859A8520E01A
:103C60003FEF4FE757E40E94190318164CF56B8598
:103C70007C858D859E8520E030E040E251E40E9405
:103C80001F02DC01CB01BC01CD010E944900DC0117
:103C9000CB019E838D830FC088EC90E09C838B8347
:103CA0008B819C810197F1F79C838B838D819E8111
:103CB00001979E838D838D819E81009769F714C043
:103CC0006F81788589859A850E944900DC01CB0146
:103CD0009E838D838D819E819A83898389819A8138
:103CE0000197F1F79A838983AC960FB6F894DEBFFB
:103CF0000FBECDBFCF91DF910895DF93CF93CDB7A6
:103D0000DEB7AC970FB6F894DEBF0FBECDBF8BA762
:103D10006CA78BA5282F30E0C901880F991F820F4F
:103D2000931F880F991F880F991FFC01E45EFE4FB7
:103D300080818170813009F077C08BA56CA50E94CD
:103D40000E1B80E090E0A0E8BFE38FA398A7A9A78F
:103D5000BAA76FA178A589A59AA520E030E04AEF1F
:103D600054E40E941F02DC01CB018BA39CA3ADA3F2
:103D7000BEA36BA17CA18DA19EA120E030E040E814
:103D80005FE30E94790388232CF481E090E09AA3FA
:103D900089A33FC06BA17CA18DA19EA120E03FEF34
:103DA0004FE757E40E94190318164CF56FA178A548
:103DB00089A59AA520E030E040E251E40E941F026C
:103DC000DC01CB01BC01CD010E944900DC01CB012B
:103DD0009AA389A30FC088EC90E098A38F8F8F8D52
:103DE00098A10197F1F798A38F8F89A19AA10197C4
:103DF0009AA389A389A19AA1009769F705C16BA12C
:103E00007CA18DA19EA10E944900DC01CB019AA357
:103E100089A389A19AA19E8F8D8F8D8D9E8D0197EB
:103E2000F1F79E8F8D8FF0C08BA56CA50E940E1BA5
:103E300080E090E0A0E8BFE3898F9A8FAB8FBC8FC2
:103E4000698D7A8D8B8D9C8D20E030E04AEF54E4B3
:103E50000E941F02DC01CB018D8B9E8BAF8BB88F34
:103E60006D897E898F89988D20E030E040E85FE39E
:103E70000E94790388232CF481E090E09C8B8B8B4B
:103E80003FC06D897E898F89988D20E03FEF4FE795
:103E900057E40E94190318164CF5698D7A8D8B8DA5
:103EA0009C8D20E030E040E251E40E941F02DC01E2
:103EB000CB01BC01CD010E944900DC01CB019C8BF0
:103EC0008B8B0FC088EC90E09A8B898B89899A89BB
:103ED0000197F1F79A8B898B8B899C8901979C8B31
:103EE0008B8B8B899C89009769F714C06D897E89BB
:103EF0008F89988D0E944900DC01CB019C8B8B8BB4
:103F00008B899C89988B8F878F8598890197F1F78A
:103F1000988B8F878CA5982F9295907F8BA5692F72
:103F20000E940E1B80E090E0A0E8BFE38B879C8797
:103F3000AD87BE876B857C858D859E8520E030E0D2
:103F40004AEF54E40E941F02DC01CB018F83988763
:103F5000A987BA876F81788589859A8520E030E0C6
:103F600040E85FE30E94790388232CF481E090E02D
:103F70009E838D833FC06F81788589859A8520E0F7
:103F80003FEF4FE757E40E94190318164CF56B8575
:103F90007C858D859E8520E030E040E251E40E94E2
:103FA0001F02DC01CB01BC01CD010E944900DC01F4
:103FB000CB019E838D830FC088EC90E09C838B8324
:103FC0008B819C810197F1F79C838B838D819E81EE
:103FD00001979E838D838D819E81009769F714C020
:103FE0006F81788589859A850E944900DC01CB0123
:103FF0009E838D838D819E819A83898389819A8115
:104000000197F1F79A838983AC960FB6F894DEBFD7
:104010000FBECDBFCF91DF910895DF93CF9300D036
:1040200000D0CDB7DEB78A837C836B83198210C042
:104030008981282F30E08B819C81FC01E20FF31FE6
:1040400090818A81692F0E94DA1C89818F5F898320
:104050008981282F30E08B819C81FC01E20FF31FC6
:104060008081882329F70F900F900F900F90CF91A8
:10407000DF910895DF93CF930F92CDB7DEB7898399
:10408000898161E00E947D1E0F90CF91DF9108959C
:104090000F931F93DF93CF93CDB7DEB762970FB621
:1040A000F894DEBF0FBECDBF8E874F87588B698BCC
:1040B0007A8B1B828AE0FE013496DF01982F1D92D5
:1040C0009A95E9F78B81082F10E08F859889A98947
:1040D000BA892AE030E040E050E0BC01CD010E9406
:1040E000792ADC01CB01282FCE010496FC01E00FD8
:1040F000F11F20838F859889A989BA892AE030E049
:1041000040E050E0BC01CD010E94792ADA01C901EA
:104110008F87988BA98BBA8B8B818F5F8B838F85D1
:104120009889A989BA890097A105B10559F68AE04D
:104130008B832AC08B8181508B838B81282F30E029
:10414000CE010496FC01E20FF31F80818823E1F089
:104150008B81882F90E09A83898312C08B81282FCE
:1041600030E0CE010496FC01E20FF31F8081982F0E
:10417000905D8E85692F0E94DA1C8B8181508B8324
:104180008B81882359F703C08B81882399F68C8112
:10419000982F905D8E85692F0E94DA1C62960FB66B
:1041A000F894DEBF0FBECDBFCF91DF911F910F916D
:1041B0000895DF93CF9300D00F92CDB7DEB78983F8
:1041C0007B836A830F900F900F90CF91DF910895BA
:1041D000DF93CF9300D000D0CDB7DEB78A836B8357
:1041E0004C8319828A81282F30E0C901880F991FDA
:1041F000820F931F880F991F880F991FFC01E35EA0
:10420000FE4F808160E00E94CB0D8B81813041F4B4
:104210008C81815889838A8169810E947D1E0AC0B0
:104220008B81823039F48C81815489838A816981C0
:104230000E947D1E0F900F900F900F90CF91DF91F5
:104240000895DF93CF93CDB7DEB78CE161E00E9494
:10425000CB0D8DE161E00E94CB0D8EE161E00E940B
:10426000CB0D8FE161E00E94CB0D88E161E00E94FF
:10427000BE0F89E161E00E94BE0F8AE161E00E9409
:10428000BE0F8BE161E00E94BE0FCF91DF910895D8
:10429000DF93CF9300D0CDB7DEB78FEF8983109235
:1042A00050016DC080915001882F90E0FC01E45CCA
:1042B000FE4F808160E00E94CB0D10924F014AC0FA
:1042C00080914F01882F90E0FC01E85CFE4F8081D7
:1042D0002EE431E0B9010E94F90E80914E0188234D
:1042E000A1F580914F01482F50E080915001282F77
:1042F00030E0CA01880F991F880F991F820F931F02
:10430000FC01E85DFE4F808189830DC080914F01E3
:10431000882F90E0FC01E85CFE4F80812EE431E0C4
:10432000B9010E94F90E80914E01882379F38091A2
:104330005001882F90E0FC01E45CFE4F808161E039
:104340000E94CB0D89818A8321C080914F018F5FAC
:1043500080934F0180914F01843008F4B1CF809158
:104360005001882F90E0FC01E45CFE4F808161E009
:104370000E94CB0D809150018F5F809350018091FE
:104380005001843008F48ECF89818A838A810F900E
:104390000F90CF91DF910895DF93CF93CDB7DEB724
:1043A00080E160E00E94CB0D81E161E00E94CB0DD5
:1043B000CF91DF910895DF93CF93CDB7DEB780E142
:1043C00061E00E94CB0D81E160E00E94CB0DCF91B6
:1043D000DF910895DF93CF93CDB7DEB780E160E042
:1043E0000E94CB0D81E160E00E94CB0DCF91DF9167
:1043F0000895DF93CF93CDB7DEB76D970FB6F894DE
:10440000DEBF0FBECDBF1D8E80E00E943A2020E6A9
:1044100030E080E0B9010E940D2080E061E047E0DB
:104420000E94E8200E944821809340018091400131
:104430008F3FC1F380914001833308F58D8D882330
:10444000F1F4809140018F32D1F0809140018A32A5
:10445000B1F0809140018B3291F0809140018D321A
:1044600071F08091400180538093510190914001FF
:1044700080E0692F0E94DA1C81E08D8FD3CF80917C
:1044800040018A3308F0DEC08D8D813009F0DAC03A
:10449000809140018F3209F4D5C0809140018A3269
:1044A00009F4D0C0809140018B3209F4CBC08091D7
:1044B00040018D3209F4C6C09091400180E0692F1F
:1044C0000E94DA1C80915101823009F0A5C08091D0
:1044D00040018433B0F480915101882F90E09C0119
:1044E000220F331FC901880F991F880F991F820F50
:1044F000931F982F80914001890F80538093510121
:104500002CC180E00E943A2029E630E080E0B90129
:104510000E940D2080E090E0AAEFB3E4898F9A8F8B
:10452000AB8FBC8F698D7A8D8B8D9C8D20E030E0B8
:104530004AEF54E40E941F02DC01CB018D8B9E8B5D
:10454000AF8BB88F6D897E898F89988D20E030E0A0
:1045500040E85FE30E94790388232CF481E090E037
:104560009C8B8B8B3FC06D897E898F89988D20E0D5
:104570003FEF4FE757E40E94190318164CF5698D79
:104580007A8D8B8D9C8D20E030E040E251E40E94DA
:104590001F02DC01CB01BC01CD010E944900DC01FE
:1045A000CB019C8B8B8B0FC088EC90E09A8B898B16
:1045B00089899A890197F1F79A8B898B8B899C89D4
:1045C00001979C8B8B8B8B899C89009769F714C012
:1045D0006D897E898F89988D0E944900DC01CB010D
:1045E0009C8B8B8B8B899C89988B8F878F859889E7
:1045F0000197F1F7988B8F8780E00E943A2020E6A0
:1046000030E080E0B9010E940D2080E061E047E0E9
:104610000E94E8201D8E06CF80915101882F90E0E6
:104620009C01220F331FC901880F991F880F991F02
:10463000820F931F982F80914001890F80538093A0
:1046400051018BC080E00E943A2029E630E080E0F2
:10465000B9010E940D2080E090E0AAEFB3E48B87BF
:104660009C87AD87BE876B857C858D859E8520E088
:1046700030E04AEF54E40E941F02DC01CB018F833B
:104680009887A987BA876F81788589859A8520E080
:1046900030E040E85FE30E94790388232CF481E056
:1046A00090E09E838D833FC06F81788589859A8550
:1046B00020E03FEF4FE757E40E94190318164CF52E
:1046C0006B857C858D859E8520E030E040E251E45D
:1046D0000E941F02DC01CB01BC01CD010E944900F8
:1046E000DC01CB019E838D830FC088EC90E09C831E
:1046F0008B838B819C810197F1F79C838B838D81C8
:104700009E8101979E838D838D819E81009769F79D
:1047100014C06F81788589859A850E944900DC01E3
:10472000CB019E838D838D819E819A83898389812C
:104730009A810197F1F79A83898380E00E943A2059
:1047400020E630E080E0B9010E940D2080E061E0C9
:1047500047E00E94E8201D8E65CE0E94B8236D962A
:104760000FB6F894DEBF0FBECDBFCF91DF91089595
:10477000DF93CF93CDB7DEB72F970FB6F894DEBF98
:104780000FBECDBF1F8680E00E943A2027E730E0B1
:1047900080E0B9010E940D2080E061E049E00E94C4
:1047A000E8200E94482180934001809140018F3F82
:1047B000C1F380914001863308F58F858823F1F499
:1047C000809140018F32D1F0809140018A32B1F066
:1047D000809140018B3291F0809140018D3271F0D7
:1047E000809140018053809352019091400180E07C
:1047F000692F0E94DA1C81E08F87D3CF809140011E
:104800008A33C8F58F858130B1F5809140018F32B0
:1048100091F1809140018A3271F1809140018B3297
:1048200051F1809140018D3231F19091400180E051
:10483000692F0E94DA1C80915201882F90E09C0120
:10484000220F331FC901880F991F880F991F820FEC
:10485000931F982F80914001890F805380935201BC
:104860000E94C6242F960FB6F894DEBF0FBECDBFB0
:10487000CF91DF91089580E00E943A2022E830E055
:1048800080E0B9010E940D2080E090E0AAEFB3E43F
:104890008B879C87AD87BE876B857C858D859E8544
:1048A00020E030E04AEF54E40E941F02DC01CB011B
:1048B0008F839887A987BA876F81788589859A853C
:1048C00020E030E040E85FE30E94790388232CF485
:1048D00081E090E09E838D833FC06F8178858985DC
:1048E0009A8520E03FEF4FE757E40E94190318161E
:1048F0004CF56B857C858D859E8520E030E040E21F
:1049000051E40E941F02DC01CB01BC01CD010E94D9
:104910004900DC01CB019E838D830FC088EC90E0C1
:104920009C838B838B819C810197F1F79C838B8384
:104930008D819E8101979E838D838D819E810097BD
:1049400069F714C06F81788589859A850E9449002E
:10495000DC01CB019E838D838D819E819A83898327
:1049600089819A810197F1F79A83898380E00E9477
:104970003A2027E730E080E0B9010E940D2080E076
:1049800061E049E00E94E8201F860BCFDF93CF93C0
:10499000CDB7DEB72F970FB6F894DEBF0FBECDBFF1
:1049A0001F8680E00E943A2022E930E080E0B901D1
:1049B0000E940D2080E061E049E00E94E8200E9412
:1049C000482180934001809140018F3FC1F3809145
:1049D0004001863308F58F858823F1F480914001EA
:1049E0008F32D1F0809140018A32B1F08091400144
:1049F0008B3291F0809140018D3271F080914001B5
:104A00008053809353019091400180E0692F0E9470
:104A1000DA1C81E08F87D3CF809140018A3308F080
:104A20004EC08F85813009F04AC0809140018F329D
:104A300009F445C0809140018A3209F440C0809158
:104A400040018B32E1F1809140018D32C1F19091B2
:104A5000400180E0692F0E94DA1C80915301882F69
:104A600090E09C01220F331FC901880F991F880F06
:104A7000991F820F931F982F80914001890F8053B7
:104A80008093530180E00E94641281E00E946412CE
:104A900082E00E94641283E00E94641284E00E941B
:104AA000641285E00E9464120E941B262F960FB6A6
:104AB000F894DEBF0FBECDBFCF91DF91089580E0A7
:104AC0000E943A202DE930E080E0B9010E940D20DB
:104AD00080E090E0AAEFB3E48B879C87AD87BE8728
:104AE0006B857C858D859E8520E030E04AEF54E41F
:104AF0000E941F02DC01CB018F839887A987BA87A8
:104B00006F81788589859A8520E030E040E85FE311
:104B10000E94790388232CF481E090E09E838D83AA
:104B20003FC06F81788589859A8520E03FEF4FE708
:104B300057E40E94190318164CF56B857C858D850A
:104B40009E8520E030E040E251E40E941F02DC013B
:104B5000CB01BC01CD010E944900DC01CB019E8349
:104B60008D830FC088EC90E09C838B838B819C812C
:104B70000197F1F79C838B838D819E8101979E83A2
:104B80008D838D819E81009769F714C06F81788530
:104B900089859A850E944900DC01CB019E838D8323
:104BA0008D819E819A83898389819A810197F1F70A
:104BB0009A83898380E00E943A2022E930E080E0F5
:104BC000B9010E940D2080E061E049E00E94E820E8
:104BD0001F86F5CEDF93CF93CDB7DEB7809153011B
:104BE0008B3330F4809153018F5F8093530120C049
:104BF000809152018B3340F4809152018F5F8093FA
:104C000052011092530114C080915101873150F428
:104C1000809151018F5F8093510110925201109247
:104C2000530106C01092510110925201109253018B
:104C3000CF91DF9108950F931F93DF93CF93CDB75B
:104C4000DEB7C455D0400FB6F894DEBF0FBECDBF5F
:104C50000E94D1060E94A90785E00E94F4060E94E6
:104C60001D0780E00E943A202DEA30E080E0B90183
:104C70000E940D208AEE95E20E9455078091510115
:104C80009AE0692F0E946D2A982F80E0692F0E9478
:104C9000361180E00E940212FE01EF5AFF4F80E0C1
:104CA00090E0A0E4B0E480839183A283B3838E017B
:104CB000035B1F4FFE01EF5AFF4F608171818281BC
:104CC000938120E030E04AEF54E40E941F02DC01AF
:104CD000CB01F80180839183A283B383FE01E35B60
:104CE000FF4F608171818281938120E030E040E854
:104CF0005FE30E947903882344F4FE01E55BFF4FE4
:104D000081E090E09183808364C0FE01E35BFF4F0C
:104D1000608171818281938120E03FEF4FE757E40A
:104D20000E94190318160CF043C0FE01EF5AFF4F02
:104D3000608171818281938120E030E040E251E422
:104D40000E941F02DC01CB018E01055B1F4FBC01DD
:104D5000CD010E944900DC01CB01F80191838083E1
:104D60001FC0FE01E75BFF4F88EC90E091838083DA
:104D7000FE01E75BFF4F808191810197F1F7FE0112
:104D8000E75BFF4F91838083DE01A55BBF4FFE0190
:104D9000E55BFF4F80819181019711969C938E93E3
:104DA000FE01E55BFF4F808191810097D1F627C01E
:104DB0008E01055B1F4FFE01E35BFF4F6081718138
:104DC000828193810E944900DC01CB01F80191832B
:104DD0008083DE01A95BBF4FFE01E55BFF4F808151
:104DE00091818D939C93FE01E95BFF4F80819181BE
:104DF0000197F1F7FE01E95BFF4F9183808380E02B
:104E00000E946412809151019AE0692F0E946D2ADC
:104E1000892F982F81E0692F0E94361181E00E942E
:104E20000212FE01ED5BFF4F80E090E0A0E4B0E4F1
:104E300080839183A283B3838E01015C1F4FFE01A7
:104E4000ED5BFF4F608171818281938120E030E0D2
:104E50004AEF54E40E941F02DC01CB01F801808379
:104E60009183A283B383FE01FF9660817181828169
:104E7000938120E030E040E85FE30E9479038823DB
:104E80002CF481E090E09EAF8DAF46C0FE01FF960E
:104E9000608171818281938120E03FEF4FE757E489
:104EA0000E941903181664F5FE01ED5BFF4F608147
:104EB00071818281938120E030E040E251E40E94E0
:104EC0001F02DC01CB01BC01CD010E944900DC01C5
:104ED000CB019EAF8DAF0FC088EC90E09CAF8BAF45
:104EE0008BAD9CAD0197F1F79CAF8BAF8DAD9EADB7
:104EF00001979EAF8DAF8DAD9EAD009769F716C03F
:104F0000FE01FF9660817181828193810E94490038
:104F1000DC01CB019EAF8DAF8DAD9EAD9AAF89AF59
:104F200089AD9AAD0197F1F79AAF89AF81E00E9400
:104F30006412809152019AE0692F0E946D2A982F85
:104F400082E0692F0E94361182E00E94021280E006
:104F500090E0A0E4B0E48DAB9EABAFABB8AF6DA971
:104F60007EA98FA998AD20E030E04AEF54E40E947A
:104F70001F02DC01CB0189AB9AABABABBCAB69A91F
:104F80007AA98BA99CA920E030E040E85FE30E9469
:104F9000790388232CF481E090E098AB8FA73FC081
:104FA00069A97AA98BA99CA920E03FEF4FE757E4B4
:104FB0000E94190318164CF56DA97EA98FA998AD0A
:104FC00020E030E040E251E40E941F02DC01CB010E
:104FD000BC01CD010E944900DC01CB0198AB8FA739
:104FE0000FC088EC90E09EA78DA78DA59EA5019788
:104FF000F1F79EA78DA78FA598A9019798AB8FA7CA
:105000008FA598A9009769F714C069A97AA98BA9F7
:105010009CA90E944900DC01CB0198AB8FA78FA50A
:1050200098A99CA78BA78BA59CA50197F1F79CA796
:105030008BA782E00E946412809152019AE0692F4E
:105040000E946D2A892F982F83E0692F0E943611C4
:1050500083E00E94021280E090E0A0E4B0E48FA31D
:1050600098A7A9A7BAA76FA178A589A59AA520E0B6
:1050700030E04AEF54E40E941F02DC01CB018BA315
:105080009CA3ADA3BEA36BA17CA18DA19EA120E09A
:1050900030E040E85FE30E94790388232CF481E04C
:1050A00090E09AA389A33FC06BA17CA18DA19EA192
:1050B00020E03FEF4FE757E40E94190318164CF524
:1050C0006FA178A589A59AA520E030E040E251E4DF
:1050D0000E941F02DC01CB01BC01CD010E944900EE
:1050E000DC01CB019AA389A30FC088EC90E098A3C0
:1050F0008F8F8F8D98A10197F1F798A38F8F89A13A
:105100009AA101979AA389A389A19AA1009769F707
:1051100014C06BA17CA18DA19EA10E944900DC015D
:10512000CB019AA389A389A19AA19E8F8D8F8D8D82
:105130009E8D0197F1F79E8F8D8F83E00E94641200
:10514000809153019AE0692F0E946D2A982F84E084
:10515000692F0E94361184E00E94021280E090E0E4
:10516000A0E4B0E4898F9A8FAB8FBC8F698D7A8D64
:105170008B8D9C8D20E030E04AEF54E40E941F02AA
:10518000DC01CB018D8B9E8BAF8BB88F6D897E89B7
:105190008F89988D20E030E040E85FE30E9479033A
:1051A00088232CF481E090E09C8B8B8B3FC06D8931
:1051B0007E898F89988D20E03FEF4FE757E40E946A
:1051C000190318164CF5698D7A8D8B8D9C8D20E016
:1051D00030E040E251E40E941F02DC01CB01BC013F
:1051E000CD010E944900DC01CB019C8B8B8B0FC051
:1051F00088EC90E09A8B898B89899A890197F1F7DD
:105200009A8B898B8B899C8901979C8B8B8B8B8943
:105210009C89009769F714C06D897E898F89988D64
:105220000E944900DC01CB019C8B8B8B8B899C8974
:10523000988B8F878F8598890197F1F7988B8F8747
:1052400084E00E946412809153019AE0692F0E94C9
:105250006D2A892F982F85E0692F0E94361185E0ED
:105260000E94021280E090E0A0E4B0E48B879C876B
:10527000AD87BE876B857C858D859E8520E030E07F
:105280004AEF54E40E941F02DC01CB018F83988710
:10529000A987BA876F81788589859A8520E030E073
:1052A00040E85FE30E94790388232CF481E090E0DA
:1052B0009E838D833FC06F81788589859A8520E0A4
:1052C0003FEF4FE757E40E94190318164CF56B8522
:1052D0007C858D859E8520E030E040E251E40E948F
:1052E0001F02DC01CB01BC01CD010E944900DC01A1
:1052F000CB019E838D830FC088EC90E09C838B83D1
:105300008B819C810197F1F79C838B838D819E819A
:1053100001979E838D838D819E81009769F714C0CC
:105320006F81788589859A850E944900DC01CB01CF
:105330009E838D838D819E819A83898389819A81C1
:105340000197F1F79A83898385E00E94641296CCD5
:10535000DF93CF93CDB7DEB72E970FB6F894DEBFAD
:105360000FBECDBF0E94B40D0E94C6120E94212123
:105370000E94B20C80E00E943A202CEB30E080E0EA
:10538000B9010E940D2080E062E041E00E94E82027
:1053900027EC30E080E0B9010E940D200E944821F6
:1053A00080934001809140018F3FC1F38091400183
:1053B000813319F40E94F921F1CF80E00E943A2054
:1053C00021ED30E080E0B9010E940D2080E090E006
:1053D000AAEFB3E48B879C87AD87BE876B857C85FE
:1053E0008D859E8520E030E04AEF54E40E941F0244
:1053F000DC01CB018F839887A987BA876F81788575
:1054000089859A8520E030E040E85FE30E947903D7
:1054100088232CF481E090E09E838D833FC06F81D0
:10542000788589859A8520E03FEF4FE757E40E9411
:10543000190318164CF56B857C858D859E8520E0BB
:1054400030E040E251E40E941F02DC01CB01BC01CC
:10545000CD010E944900DC01CB019E838D830FC0EA
:1054600088EC90E09C838B838B819C810197F1F782
:105470009C838B838D819E8101979E838D838D81FB
:105480009E81009769F714C06F81788589859A8518
:105490000E944900DC01CB019E838D838D819E811A
:1054A0009A83898389819A810197F1F79A83898305
:1054B00080E00E943A202CEB30E080E0B9010E94AD
:1054C0000D2080E062E041E00E94E82027EC30E01F
:1054D00080E0B9010E940D2061CF991B79E004C0E2
:1054E000991F961708F0961B881F7A95C9F7809523
:1054F0000895A1E21A2EAA1BBB1BFD010DC0AA1F15
:10550000BB1FEE1FFF1FA217B307E407F50720F02C
:10551000A21BB30BE40BF50B661F771F881F991FA7
:105520001A9469F760957095809590959B01AC01F0
:10553000BD01CF0108952F923F924F925F926F92DB
:105540007F928F929F92AF92BF92CF92DF92EF9213
:10555000FF920F931F93CF93DF93CDB7DEB7CA1B94
:10556000DB0B0FB6F894DEBF0FBECDBF09942A88BF
:10557000398848885F846E847D848C849B84AA8467
:10558000B984C884DF80EE80FD800C811B81AA81F4
:10559000B981CE0FD11D0FB6F894DEBF0FBECDBFBF
:0855A000ED010895F894FFCF1E
:1055A800686F7572733D2D2D004E6F20686F757290
:1055B80073203E203234006D696E757465733D2D1D
:1055C8002D004E6F206D696E75746573203E203610
:1055D80030007365636F6E64733D2D2D004E6F2030
:1055E8007365636F6E6473203E20363000525443F7
:1055F80020537461727465642E2E2E005072657388
:1056080073203120746F0073657420636C6F636B53
:105618000057726F6E672063686F696365000000EA
:1056280000000000000000010203040506100A0043
:10563800010203040506110A00010203040506120B
:105648000A00010203040506130A00010203040507
:1056580006140A00010203040506150ACA08090A05
:10566800000000000E0D0C0B3738392F3435362A60
:105678003132332D63303D2B18191A1B1C1D1E1F88
:0C568800FF3F065B4F666D7D077F6F00E3
:00000001FF
